:020000040800F2
:1000000040090020A90100089B310008D92E0008F2
:100010009931000899140008813E00080000000092
:10002000000000000000000000000000253500086E
:100030009B14000800000000E13400081D3900088E
:10004000C3010008C3010008C3010008C301000880
:10005000C3010008C3010008C3010008C301000870
:10006000C3010008C3010008C3010008C301000860
:10007000C3010008C3010008C3010008C301000850
:10008000C3010008C3010008C3010008C301000840
:10009000C3010008C3010008C3010008C301000830
:1000A00095390008B9390008AD390008A1390008B0
:1000B000C3010008C3010008C3010008C301000810
:1000C000C3010008C3010008C3010008C301000800
:1000D000C3010008693E0008753E0008C30100081E
:1000E000C3010008C3010008C301000800F002F8C2
:1000F00000F04AF80AA090E8000C82448344AAF178
:100100000107DA4501D100F03FF8AFF2090EBAE875
:100110000F0013F0010F18BFFB1A43F0010318473B
:10012000A44C0000C44C0000103A24BF78C878C129
:10013000FAD8520724BF30C830C144BF04680C60ED
:10014000704700000023002400250026103A28BF35
:1001500078C1FBD8520728BF30C148BF0B60704739
:10016000662904F05582642900F07A8000207047E7
:100170001FB500F0E9FB04000020002104F070F836
:10018000E0601FBD10B510BD00F0DEFC1146FFF7AA
:10019000EFFF03F0CBFE00F0FCFC03B4FFF7F2FF2F
:1001A00003BC00F03FFD00000948804709480047B4
:1001B000FEE7FEE7FEE7FEE7FEE7FEE7FEE7FEE717
:1001C000FEE7FEE704480549054A064B7047000074
:1001D00093390008ED00000840030020400900208A
:1001E00040050020400500200FB41CB5074B06AAAF
:1001F0007B4469460090059800F08DFB002069461D
:1002000000F09CFB1CBC5DF814FB000049070000DB
:1002100070B5044685690068C10601D5302600E046
:100220002026C00707D070BDD4E901213046904791
:10023000206A401C20626D1EF6D570BD70B5044664
:1002400085690078C00707D170BDD4E9012120205D
:100250009047206A401C20626D1EF6D570BD0000DC
:100260002DE9F0410646002410687529314616A58F
:1002700010D0AFF30080002802DA404213A507E057
:1002800031688A0701D512A502E0490704D511A5F6
:10029000012401E0AFF3008000210A2206F12407C7
:1002A00009E0B0FBF2FCB0FBF2F302FB1C003030C3
:1002B00078541846491C0028F3D123462A46304674
:1002C000BDE8F04100F0B9B8000000002D000000CA
:1002D0002B000000200000002DE9F0474FF0000A3D
:1002E00089460446C0F820A02046E16888470028D7
:1002F00076D0252806D0D4E901219047206A401CF9
:100300002062F1E7E168204600258847C4F81CA078
:1003100006460027C4F818A02A2E09D0304603F05C
:10032000EFFD38B304EB8708303EC8F8186019E0D9
:1003300059F8041B204604EB87029161E168884765
:10034000012F064618D1E069002820DA25F02005A3
:100350001DE0D8F8180000EB800006EB40003038B4
:10036000C8F818002046E1688847064603F0C8FD33
:100370000028EED1012F0AD02E2E08D12046E168A8
:1003800088477F1C0646022F45F02005C4DBA06984
:10039000002803DA404245F00105A061E80701D0DA
:1003A00025F01005B6B1A6F14100192802D8203673
:1003B00045F400654A463146204625604D46FFF724
:1003C000CFFE58B1012806D0ED1D25F0070000F141
:1003D000080989E704E005F1040985E730468AE762
:1003E000206ABDE8F0874FF0000200B5134694463E
:1003F0009646203922BFA0E80C50A0E80C50B1F17D
:100400002001BFF4F7AF090728BFA0E80C5048BF90
:100410000CC05DF804EB890028BF40F8042B08BF2E
:10042000704748BF20F8022B11F0804F18BF00F82A
:10043000012B70477047704770472DE9F0470D4614
:1004400099469246044600F124080168880604D5BE
:10045000E06921F01001216000E00120A84201DDE7
:10046000471B00E00027A1697A1902EB0900081A6E
:10047000A0612078C00602D42046FFF7C9FE0026FE
:1004800008E0D4E901211AF806009047206A401CD0
:10049000761C20624E45F4DB2078C0060AD5204643
:1004A000FFF7B6FE06E0D4E9012130209047206A2C
:1004B000401C2062381EA7F10107F4DC07E0D4E9F4
:1004C000012118F805009047206A401C2062281E70
:1004D000A5F10105F3DC2046FFF7B0FE2078000609
:1004E00002D50220BDE8F0870120FBE770472DE927
:1004F000FF4F0C461E464FF0FF378BB0D2E900018C
:10050000DDF860800A908A46C1F30A5505B93D4678
:10051000002108464FF00000BAF1000F00F440003F
:1005200005DA00EB80004FF4400101EA50004FEA89
:100530009059B9F1010F00DDB9460A9850EA4A0016
:100540000ED044F61050A5F2FF3545432F14B8F1F4
:10055000000F1ED07542291E1EDDC9F100021CE0ED
:10056000B8F1010F4FF0000001D0302103E0F24359
:1005700005E02154401CB042FBDB30460022002144
:1005800021540B99C1F80880C1E900200FB0BDE8E3
:10059000F08FBD1B6D1CDEE74A4600DA694206A8F3
:1005A00000F05CFA06AB93E8070003AB83E80700B2
:1005B00050460A9900F03DFB8DE80700A0F5005079
:1005C0001F3800900398002D0ADD42F21F014A46B1
:1005D0000844002303A90390684600F0A6FD09E043
:1005E000A0F500504A461F38002303A9039068462F
:1005F00000F0B0FD8DE807000004000C03D04FF0C0
:10060000FF30410800E01046B8F1000F03D000228F
:10061000009215461EE0751E05D400F099F930329F
:1006200062556D1EF9D5B3460122084302D000225F
:100630007F1C04E02078302801D100227F1E002A90
:10064000099784D01DE0112D07DA00F081F93032CE
:1006500062556D1C50EA0102F5D1084302D00098A2
:10066000C8B10EE00021681E05E0235C625C6354A3
:100670002254401E491C8142F7DBAB46A81B401E9A
:100680000990002004F80B000B98099AC0F8088024
:10069000C0E9002B7AE711264FF0000857E72DE953
:1006A000F04F88460446D21D22F0070191B0D1E9EF
:1006B0000001CDE90A0103F0FFFB02460B98C00FD1
:1006C00001D02D2007E02068810701D52B2002E012
:1006D000202101EAC000032A099001D0072A05DB86
:1006E00003464146204600F079F90BE12078800668
:1006F00001D5E06900E00620B8F1650F814606D01B
:10070000B8F1660F18D0B8F1670F70D131E0002052
:10071000B9F1110F009001DB112301E009F1010390
:100720000AAA01A90CA8FFF7E2FEDDE90C70002679
:1007300009F10105834647E001204B4600904FF048
:1007400000470AAA01A90CA8FFF7D1FEDDE90DB008
:100750000C995D46002610B909F101000D18B9EB9E
:10076000050003D4C0F1FF3609F10105A5EB09002E
:100770002BE0B9F1010F01DA4FF001090020B9F1C6
:10078000110F0090484601DD112300E003460AAA3C
:1007900001A90CA8FFF7ABFEDDE90C704D46002661
:1007A0008346207800070AD4AB4500DA5D4601A8ED
:1007B000012D04DD411911F8011C302907D04F45E6
:1007C00002DA17F1040F04DA012082460FE06D1EF1
:1007D000EEE7002F02DCED1B3E4403E0781CA8424C
:1007E00000DD7D1CB81B00F1010A4FF000472078A6
:1007F000000703D4AA4501DB4FF0FF3A0021B7F10F
:10080000004F0DF143088DF8431024D002202B2314
:10081000002F01DA7F422D230A21021EA0F10100E0
:1008200000DC5FB197FBF1FC97FBF1F201FB1C7C54
:1008300017460CF1300C08F801CDEEE7A8F10100E5
:1008400003702188090501D5452100E06521A0F14B
:10085000010800F8011C09980FA9A1EB0807FF1D6A
:1008600000B10120411901EBEA70A1693844081A6E
:10087000401EA0612078C00602D42046FFF7C8FCC5
:10088000099828B1D4E901219047206A401C2062D0
:100890002078C00622D52046FFF7BAFC1EE0002EC5
:1008A00004DBB34502DD01A8805D00E03020D4E91F
:1008B00001219047206A401C2062761CAAF10100A9
:1008C0005FEA000A0AD100F03FF8C0680168405CA6
:1008D000D4E901219047206A401C2062281EA5F11E
:1008E0000105DCDC07E0D4E9012118F8010B904791
:1008F000206A401C2062381EA7F10107F3DC204665
:10090000FFF79CFC032011B041E6000001694A1C7E
:1009100002610878704700B58FB0CDE90131002140
:10092000059105497944CDE9031011466846FFF762
:10093000D3FC0FB000BD0000E5FFFFFF0A6802F81E
:10094000010B0A6070470000004870470003002058
:1009500030B5B0F10A024FEA900E71F100034EEA91
:10096000817EB0EB0E0061EB91014FEA101E4EEA62
:10097000017E10EB0E0041EB11114FEA102E4EEAF2
:10098000016E10EB0E0041EB11214FEA104E4EEAC2
:10099000014E10EB0E0041EB1141401841F10001F6
:1009A0004FEAD00040EA41704FEAD10110EB8005D8
:1009B0004FEA810444EA907444EB01046D1944EB5E
:1009C0000404521BA3414FF0000348BF0A3200D574
:1009D00030BD401C41F1000130BD00002DE9F04167
:1009E0001F46044603260168072A01F4006004DB61
:1009F00008B116A505E016A503E008B115A500E0AD
:100A000015A521F010002060A069C01EA0610FB1E3
:100A1000401EA0612046FFF7FBFB4FB1D4E9012146
:100A200038469047206A401C2062C01C206206E0C5
:100A3000206AFAE7D4E9012115F8010B9047761EE8
:100A4000F8D22046FFF7FAFBBDE8F0814E414E0098
:100A50006E616E00494E4600696E66002DE9F047F2
:100A6000814616468AB0354878440DC88DE80D0099
:100A700032487844801C03AC0DC884E80D0041F670
:100A80009B300844372190FBF1F290FBF1F5A5F182
:100A9000800501FB12041B3C02D56442012000E0EA
:100AA0000020DFF898A080460027FA44AAF1BE0A89
:100AB0000EE0E0070AD03246684607EB4701012303
:100AC0000AEB810100F046FB8DE8070064107F1CF3
:100AD000002CEED1194F7F44AE3F19E0E80715D046
:100AE00007EB04100DF1180A90E80E008AE80E00DA
:100AF000C068F04201D1981908903246012306A936
:100B000003A800F027FB03AB83E807006D10641C0B
:100B1000002DE3D14FF0010332466946B8F1000FD2
:100B200003A802D000F001FB01E000F013FBC9E9CB
:100B30000001C9F808200AB0BDE8F0874043000072
:100B400000487047E00200207546FFF7F9FFAE4607
:100B500005006946534620F00700854618B020B5C9
:100B6000FFF730FBBDE820404FF000064FF00007D4
:100B70004FF000084FF0000B21F00701AC46ACE845
:100B8000C009ACE8C009ACE8C009ACE8C0098D46B2
:100B9000704710B50446AFF300802046BDE8104012
:100BA000FFF7FBBA4FF0013C50F8042B51F8043B1F
:100BB0009A4221D1A2EB0C03934313EACC1317D131
:100BC00050F8042B51F8043B9A4215D1A2EB0C03C8
:100BD000934313EACC130BD150F8042B51F8043B88
:100BE0009A4209D1A2EB0C03934313EACC13DBD056
:100BF0004FF00000704700BFD01A01BAB1FA81F17E
:100C000001F0180122FA01F0CB40C1F12001DBB262
:100C1000C0B2C01A2CFA01F3D11A914311EAC311E0
:100C2000E6D1704701491820ABBEFEE7260002005E
:100C300070475FEA400C08BF91F0000F4FEA8C2329
:100C40004FEAC12243EA51514FEA1C5018BF00F548
:100C5000F0404FEA300018BF41F000415FEA6C5CA1
:100C600000F02980BCF1FF3F08BF40F08040704792
:100C7000130C06BF12044FF0100C4FF0000C130EB3
:100C800004BF12020CF1080C130F04BF12010CF187
:100C9000040C930F04BF92000CF1020CD30F04BF9D
:100CA00052000CF1010C11464FF00002A0F11F00A0
:100CB000A0EB0C00704711F0004F08BF704731F0F7
:100CC00000413FF4D5AF0B0C06BF09044FF0100CE8
:100CD0004FF0000C0B0E04BF09020CF1080C0B0FB7
:100CE00004BF09010CF1040C8B0F04BF89000CF147
:100CF000020CCB0F04BF49000CF1010CCCF1200316
:100D0000A0EB0C0022FA03F302FA0CF241EA030111
:100D100000F10100704720F07F4C80EA030023F0CF
:100D20007F47ACEB070303F57C5300F0004003F171
:100D3000FF032DE980494FEA154B09B44FEA1443EC
:100D400025EA0B4E24EA03480FF2042606EB13278C
:100D500049083E785FEA320203FB0667C7F50007E1
:100D600007FB06F64FEA54374FEAD64606F102066D
:100D700007FB066CCCF1005C4FEA1C472CEA074CE1
:100D800007FB06F40CFB06F504EB15464FEA961636
:100D900034BF00204FF000404FEAD13706FB07FC7C
:100DA0004FEA1C4C0CFB0BF7D21B03FB0CF761EB5F
:100DB00007010CFB0EF7B0EB074072EB17420CFB80
:100DC00008F734BFA2EB0742B2EB074261EB1741D1
:100DD0004FEA0C444FEA910706FB07FC4FEA1C4C14
:100DE0000CFB0BF7B0EBC74072EB573203FB0CF771
:100DF00034BFA2EBC742B2EBC74261EB57310CFBE9
:100E00000EF7B0EBC70072EB57720CFB08F734BF5C
:100E1000A2EBC702B2EBC70261EB5771039F4FEA27
:100E2000816141EA921104EBCC044FEAD1374FEAD9
:100E3000826206FB07FC42EA90124FEA80604FEAAA
:100E40001C4C0CFB0BF7D21B03FB0CF761EB0701EF
:100E50000CFB0EF7B0EB074072EB17420CFB08F7E8
:100E600034BFA2EB0742B2EB074261EB17414FEAF6
:100E70008C554FEA910704EB9C2406FB07FC4FEAD4
:100E80001C4C0CFB0BF7B0EBC74072EB573203FB6B
:100E90000CF734BFA2EBC742B2EBC74261EB57314C
:100EA0000CFB0EF7B0EBC70072EB57720CFB08F7A8
:100EB00034BFA2EBC702B2EBC70261EB577115EB6F
:100EC0004C254FEA816141EA92114FEA82624FEA72
:100ED000D13742EA901206FB07FC44F100044FEAC6
:100EE00080604FEA1C4C0CFB0BF7D21B03FB0CF78A
:100EF00061EB07010CFB0EF7B0EB074072EB1742FA
:100F00000CFB08F734BFA2EB0742B2EB074261EBE0
:100F1000174115EB1C154FEA813141EA92414FEA26
:100F2000823242EA90424FEA80304FEA0C7644F136
:100F3000000448EA03434EEA0B484FF0000EB2EBC0
:100F4000080C71EB030724BF624639464EEB0E0EC8
:100F50004FF0000B0018524149414BEB0B0BB2EB29
:100F6000080C71EB03077BF1000B24BF6246394686
:100F70004EEB0E0E4FF0000B0018524149414BEB67
:100F80000B0BB2EB080C71EB03077BF1000B24BFDA
:100F9000624639464EEB0E0E51EA020718BF46F084
:100FA000010616EB0E7655F1000254F1000103D54F
:100FB000BDE88901BDE80088BDE88901BDE80048B9
:100FC000B619524141EB0101A3F101037047808042
:100FD0007F7E7D7C7B7A7978777676757473727193
:100FE00071706F6E6E6D6C6C6B6A6A69686867664B
:100FF00066656464636362616160605F5F5E5E5DDD
:101000005D5C5C5B5B5A5A59595858575756565550
:1010100055555454535352525251515050504F4FB2
:101020004F4E4E4D4D4D4C4C4C4B4B4B4A4A4A4902
:101030004949484848474747474646464545454445
:101040004444444343434342424242414141002BD2
:101050009C4630D477002BD01CB54FEA370703B439
:101060004FF010004FF01001BAF1000F06D0BCF1A4
:10107000000FDCBF40F0080040F008014FF0000016
:101080000FBCBDE810400BF1010BBBF1010F08BF15
:101090005FEA170722BF12F1010211F101014FF0BF
:1010A000004143F1000300F0004043EA00007047B4
:1010B000F9D35708D0E746EA064613F1400F4FEA46
:1010C00016461FDD13F1200FDFBF16430A4600212D
:1010D00020335B42BED0C3F1200746EA064602FA3F
:1010E00007F74FEA164646EA0706C3F1200722FA39
:1010F00003F201FA07F721FA03F14FF0000342EA85
:101100000702A7E746EA020646EA06464FEA1646FF
:1011100046EA0106BCBF46EA0646360C4FF000031D
:101120004FF000024FF0000194E72DE9804C9A4601
:10113000934670B491E8380007C831EA400C48BFC4
:1011400034EA430C03D5FFF7E6FDFFF780FFF0BC60
:10115000BDE8008C2DE9804C9A46934670B491E826
:10116000380007C810F0804F08BF13F0804F03D13C
:1011700000F005F8FFF76BFFF0BCBDE8008C20F035
:101180007F4780EA030023F07F4C07EB0C03A3F5B5
:101190007C5300F00040A3F1FE0392F0000F00F03A
:1011A000B38095F0000F00F077802DE901494FEAF8
:1011B00011404FEA144621EA004800FB06FC24EAED
:1011C000064708FB06F607FB08F800FB07F718EBD5
:1011D00006484CEB164C4FEA124B18EB07484FEA07
:1011E00015464CEB174022EA0B4E0BFB06FC25EA9A
:1011F00006470EFB06F607FB0EFE0BFB07F71EEB82
:10120000064E4CEB164C4FF000061EEB074E4CEB17
:10121000174B18EB0B0840F1000018EB0E0B58EBC6
:10122000000840F100008F1A4FF000013CBFC94395
:10123000661B14BFB5EB040C00213CBFC943F61B71
:101240004FEA17444EEA8E0E27EA04454FEA1C4740
:1012500004FB07622CEA074C05FB07F70CFB05F6BD
:1012600004FB0CFC16EB074642EB174216EB0C4650
:1012700042EB1C421BEB060658EB0202414146EAD8
:101280009E0601D5BDE80189B619524141EB010125
:10129000A3F10103BDE801894FEA14454FEA114764
:1012A00024EA054621EA074C05FB07F406FB07F78D
:1012B0000CFB06F105FB0CFC11EB074144EB17445A
:1012C0004FEA124711EB0C4144EB1C4422EA074C55
:1012D00005FB07F206FB07F70CFB06F605FB0CFC0B
:1012E00016EB074642EB174216EB0C4642EB1C4549
:1012F0006A1854F1000148BF7047B619524141EBDA
:101300000101A3F10103704795F0000F37D04FEAB8
:1013100011424FEA144721EA024624EA074C02FB35
:1013200007F106FB07F70CFB06F402FB0CFC14EBC1
:10133000074441EB17414FEA154714EB0C4441EBCE
:101340001C4125EA074C02FB07F506FB07F70CFBDF
:1013500006F602FB0CFC16EB074645EB174516EBB1
:101360000C4645EB1C42121951F1000148BF704771
:10137000B619524141EB0101A3F1010370474FEA55
:1013800014454FEA114724EA054621EA074C05FBBC
:1013900007F106FB07F70CFB06F24FF0000605FB12
:1013A0000CFC12EB074241EB174112EB0C4251EBE4
:1013B0001C4148BF7047921841EB0101A3F10103A2
:1013C0007047000070B5044600688168C943C907CA
:1013D00017D1816821F00101816000F0A5FC05466C
:1013E0000AE000BF00F0A0FC401B022804D92068DE
:1013F0008068C043C00706D020688068C043C0072B
:10140000F0D0002070BDA06A40F01000A062E06A39
:1014100040F00100E062012070BD0000F8B5002638
:101420000446009600688168C943C9072DD08168C9
:1014300041F001018160164816490068B0FBF1F0E7
:1014400000E0401E00900028FBD100F06DFC054636
:1014500016E000BF00F068FC401B022810D920688D
:101460008068C043C0070BD0A06A40F01000A062A3
:10147000E06A40F00100E06284F824600120F8BDD9
:1014800020688068C043C007E4D10020F8BD000098
:101490003400002040420F00FEE7704772B6FEE7BE
:1014A0002DE9F041274800F049FA3221254800F0A3
:1014B000A7F9244800F0CCF8234C800503D5214837
:1014C00000F0C8F820611F4800F098FA1F4800F0AB
:1014D00035FA32211D4800F093F91C4800F0B8F8A5
:1014E000800503D5194800F0B5F86061174800F091
:1014F00085FAA069E061206A6062206903F02AF839
:1015000002F0FCFF124E4FF066352A46334602F0D9
:10151000F7FE6FF00B073A4603F0AEF802F0B6FEA6
:10152000A061606903F016F802F0E8FF2A4633462E
:1015300002F0E6FE3A4603F09FF802F0A7FE2062B2
:10154000BDE8F0817801002000000020A801002003
:1015500066660A40F8B50024009490F824202546D9
:10156000012A12D0012280F824204A681F23072A6A
:101570000DD20668776B521E02EB820293409F43A6
:101580000B6893401F43776319E00220F8BD06689B
:101590000D2A0AD2376BD21F02EB820293409F437F
:1015A0000B6893401F43376309E0F76A0D3A02EB7B
:1015B000820293409F430B6893401F43F7620A687F
:1015C000072306680A2A0AD3F7680A3A02EB42029E
:1015D00093409F438B6893401F43F76008E037694F
:1015E00002EB420293409F438B6893401F43376155
:1015F0000A68102A01D0112A20D1124B02689A429F
:1016000017D193681B0219D4936843F400039360C5
:101610000968102912D10C490C4A0968B1FBF2F192
:1016200001EB8101490000E0491E00910029FBD136
:1016300004E0816A41F020018162012480F8245095
:101640002046F8BD002401403400002040420F0035
:10165000806A70470068C06C704700002DE9F04157
:101660004FF0000704003D467ED0A06A002628B94E
:10167000E66284F82460204600F07EF82046FFF7FA
:10168000A1FEA16AC90600D420B1A06A40F01000F2
:10169000A06269E0A16A21F4885141F00201A162CF
:1016A0006268E169237B0A4347EA43010A43A16870
:1016B0004FF48077B94209D0012907D05FF00001CB
:1016C00094F814C0BCF1010F02D00AE03946F7E7E4
:1016D000F3B1A36A43F02003A362E36A43F001037A
:1016E000E3622368D3F804C02CF4694C4CEA010C83
:1016F000C3F804C021688B68DFF870C003EA0C03EC
:1017000013438B60A168B9420BD0012909D00CE0CA
:10171000DFF85CC0A3690CEB43330B4343F4006177
:10172000DFE7218A0D05A5F580152168CB6A23F432
:1017300070032B43CB62216889680E4B194091429C
:1017400008D1E662A16A21F0020141F00101A16223
:10175000BDE8F081A06A20F0020040F01000A06215
:10176000E06A40F00100E0620120F1E7FDF7E1FFEF
:1017700000E0FFFFFE0E1FFF10B586B000210091B4
:101780000191029103911A4C03681A4903221A48E5
:10179000A34211D18B6943F400738B618B6903F40D
:1017A000007304938B6943F004038B61896901F032
:1017B00004010491012113E0104CA34215D18B695F
:1017C00043F480638B618B6903F4806304938B69BA
:1017D00043F004038B61896901F004010491022143
:1017E000CDE90012694600F0A5F906B010BD000071
:1017F0000024014000100240000801400028014080
:101800002DE9F84300270D460446009700F08CFAB6
:10181000804620688168C90508D5A06A40F020008C
:10182000A06284F824700120BDE8F8834168C905EE
:1018300003D4C06A10F4700F2AD0022000F012FB0B
:101840003B490968B1FBF0F62068036939490B424E
:101850004FEA61014FEAA1121FD1C3684FEA611C30
:1018600013EA0C0F19D103690B4225D1C06810424D
:1018700022D1142023E0681C0AD02DB100F054FAC4
:10188000A0EB0800A84203D920680068800725D58E
:10189000206800688007EED52DE003690B4202D175
:1018A000C168114206D0026923490A4206D1C068C4
:1018B000084203D1542002E0292000E0FC204643E6
:1018C000009816E0681C11D02DB100F02DFAA0EBA5
:1018D0000800A8420AD90098B04207D2A06A40F096
:1018E0000400A06284F8247003209DE70098401C47
:1018F0000090B042E6D321686FF012000860A06A41
:1019000040F40070A06220688068C0F3424007285D
:101910000CD1207B50B9A06A20F48070A062A06A2C
:10192000C00403D4A06A40F00100A06200207BE75D
:1019300034000020244992244992240070B50446C2
:1019400090F8240001280DD0012084F824002046BE
:10195000FFF764FD02004FF0000005D084F824007A
:10196000104670BD022070BDA16A40F20123994368
:1019700041F48071A1621F4D23681F49AB4218D109
:101980000E6816F4702F14D0A66A46F48016A6626C
:101990000E68760505D5A66A26F4005646F48056EC
:1019A000A662A66AF6040AD5E66A26F00606E6628C
:1019B00006E0A66A26F48016A6625E68E9E7E062A1
:1019C00084F824006FF00200186020688368C3F375
:1019D0004243072B05D1A84208D1096811F4702FA2
:1019E00004D0816841F480118160B9E7816841F4D5
:1019F000A001F9E7002801400424014010B5044685
:101A000090F82400012807D0012084F82400204603
:101A1000FFF7D8FC10B107E0022010BDA16A21F445
:101A2000885141F00101A162002184F8241010BD09
:101A300010B590F821100022022905D004218163FD
:101A400080F82020012010BD01680B6823F00E03F0
:101A50000B6001680B6823F001030B6090F84030C5
:101A6000C46B012101FA03F3636080F8211080F850
:101A70002020104610BD000010B590F82110002461
:101A8000022903D00421816301243DE001680A6832
:101A900022F00E020A6001680A6822F001020A6060
:101AA0001A4A0168914201D1012121E0174A1432FA
:101AB000914201D110211BE0144A2832914201D1F8
:101AC000891515E0114A3C32914201D189140FE089
:101AD0000E4A5032914202D14FF4803108E00B4A55
:101AE0006432914202D14FF4801101E04FF08071D5
:101AF000064A083A5160012180F82110002180F83F
:101B00002010416B01B18847204610BD08000240FB
:101B100070B5044600F008F90546601C02D0044880
:101B20000078044400F000F9401BA042FAD370BDD5
:101B3000280000202DE9F84FDFF8B8910024A9F122
:101B4000040B23460F2709F1040AABF1040EC9E088
:101B50000125A5402A40AA427DD1674ED1F804C094
:101B6000ACEB0608B44532D014DCBCF1030F3AD01C
:101B700009DCBCF1000F2AD0BCF1010F1CD0BCF174
:101B8000020F31D11DE0BCF1110F17D0BCF1120FC3
:101B90002AD119E0B8F5881F19D006DCB8F5803FC6
:101BA00015D0B8F5801F1FD111E0B8F5001F0ED079
:101BB000B8F5041F18D10AE0CB6815E0CB681B1DEF
:101BC00012E0CB6808330FE0CB680C330CE08B6875
:101BD0002BB1012B4FF0080303D0456104E004232F
:101BE00002E0056100E00023FF2A01D8064601E07B
:101BF00000F104064FEA840501D9A5F12005D6F8C5
:101C0000008007FA05FC28EA0C0803FA05F548EA03
:101C10000508C6F800804D68ED0062D5374DAE6905
:101C200046F00106AE61AD6924F0030605F001053A
:101C30000095334D06EB050CDCF80850A607360F6F
:101C400007FA06F825EA0805DFF8B880404503D111
:101C50004FF0000817E044E0DFF8AC80404502D1C7
:101C60004FF001080FE0DFF8A480404502D14FF0AB
:101C7000020808E0DFF89880404502D14FF00308E1
:101C800001E04FF0040808FA06F848EA0508CCF825
:101C900008804D68D9F80060ED024D4601D5164325
:101CA00000E096432E604D68DAF80060AD025546BC
:101CB00001D5164300E096432E604D68DBF80060C6
:101CC000AD035D4601D5164300E096432E604D6896
:101CD000DEF80060ED03754601D5164300E096433B
:101CE0002E60641C0D682A46E5407FF431AFBDE8E4
:101CF000F88F00000804014000001110001002409D
:101D00000000014000080140000C014000100140AB
:101D1000001401408068084000D0012070470AB1DB
:101D2000016170470904FBE70148806870470000C3
:101D300028000020024881680278114481607047C1
:101D400028000020074810B5016841F0100101602B
:101D5000032000F075F80F2000F006F800F024F8DA
:101D6000002010BD0020024070B50D4D04464FF418
:101D70007A712878B1FBF0F00A490968B1FBF0F0FC
:101D800000F0A4FB48B9102C07D200222146501EB7
:101D900000F036F800206C6070BD012070BD0000BE
:101DA00028000020340000200C4808B5816941F06B
:101DB00001018161816901F001010091C16941F076
:101DC0008051C161C06900F08050009004484168B2
:101DD00021F0E06141F00071416008BD0010024057
:101DE00000000140002809DB00F01F0201219140A2
:101DF0004009800000F1E020C0F8001170470000A9
:101E0000F0B40E4B1B680C46C3F30223C3F1070565
:101E1000042D00D90425191D072901D2002300E053
:101E2000DB1E012606FA05F1491E214099409E401D
:101E3000761E16403143F0BC02F052B80CED00E0C3
:101E4000064900F0070208684FF6FF03184040EA11
:101E50000220034A10430860704700000CED00E0C8
:101E60000000FA0510B501460020234C012922D0BC
:101E7000022939D010291DD161682268D20119D5F3
:101E80001E48C1F38342C903805C0AD561681B4ABE
:101E9000C1F34041921E515C194AB2FBF1F1484333
:101EA00001E0184948436168490203D44000032116
:101EB000B0FBF1F010BD226AC2F30121012903D168
:101EC000920701D5C80310BD022905D1626A9207A5
:101ED00002D549F6404010BD0329FCD12168890391
:101EE000F9D54FF2244010BD00F02AF96168C1F322
:101EF0008131491C4900DBE7001002401847000807
:101F000000127A0000093D002DE9F84305460078EB
:101F1000354CC00754D0E0690026C00008D4E06901
:101F200040F08050E061E069012600F080500090B0
:101F30002E480168C90512D40168804641F48071B9
:101F40000160FFF7F1FE074605E000BFFFF7ECFE7A
:101F5000C01B642823D8D8F80000C005F6D5206A35
:101F600010F4407021D0A98801F4407181421CD046
:101F7000206A1F49012220F440700A6000220A6092
:101F80002062C00711D0FFF7CFFE074641F2883824
:101F900008E000BFFFF7C8FEC11B414502D903207E
:101FA000BDE8F883206A8007F4D5206A696820F4C8
:101FB0004070084320621EB1E06920F08050E0616B
:101FC0002878800705D56068A96820F44040084358
:101FD00060602878C00605D56068E96820F4800054
:101FE000084360600020DBE7001002400070004002
:101FF000400442422DE9F0470F46050061D0434EB0
:10200000306800F00700B84209D2306820F00700BD
:1020100038433060306800F00700B84251D128687A
:102020003B4C810712D5400703D5606840F4E0605F
:1020300060602878000703D5606840F460506060F5
:102040006068A96820F0F000084360602878C00745
:1020500028D06868012810D02168022810D089078C
:1020600000292EDA616821F0030101436160FFF766
:102070005BFE804641F288390DE021688903EFE775
:102080008901EDE7FFF750FEA0EB0801494502D9B1
:102090000320BDE8F0876068696800F00C00B0EBD1
:1020A000810FEFD1306800F00700B8420BD93068DB
:1020B00020F0070038433060306800F00700B84275
:1020C00001D00120E5E72878400705D56068E96878
:1020D00020F4E060084360602878000706D5606857
:1020E000296920F4605040EAC100606000F038F8CF
:1020F0006168084AC1F30311515CC8400649086091
:1021000006480068FFF730FE0020C2E700200240CA
:102110000010024028470008340000202C00002056
:102120000448054900684968044AC1F30221515C2A
:10213000C8407047340000200010024038470008B3
:102140000448054900684968044AC1F3C221515C4A
:10215000C840704734000020001002403847000893
:102160000E4A51680E4801F00C03042B11D0082BC5
:102170000FD10C48C1F38343C903C05C0AD5516831
:10218000084AC1F34041921E515C054A5043B0FBDE
:10219000F1F07047044948437047000000100240C6
:1021A00000127A000647000800093D002DE9F84FAB
:1021B000040070D02078C04DC00749D06868C0F3D3
:1021C0008100012807D06868C0F38100022809D186
:1021D0006868C00306D52868800339D56068002880
:1021E000E7D035E06068B0F5803F0BD010B1B0F5B6
:1021F000A02F11D0286820F480302860286820F4AF
:10220000802002E0286840F480302860606890B147
:10221000FFF78AFD06460AE0286840F4802028601F
:10222000F0E700BFFFF780FD801B642873D82868A3
:102230008003F7D50CE0FFF777FD064605E000BF09
:10224000FFF772FD801B6428F0D828688003F7D45C
:1022500020789A4E80074FF001094FF0000839D5D9
:10226000686810F00C0F07D06868C0F3810002287E
:1022700009D16868C00306D42868800714D520698E
:10228000012808D110E02069B0B1C6F80090FFF72E
:102290004BFD074605E00AE1FFF746FDC01B02289B
:1022A000C4D828688007F7D52868616920F0F8004D
:1022B00040EAC10028600DE0C6F80080FFF734FD59
:1022C000074604E0FFF730FDC01B022823D828682A
:1022D0008007F7D4207800072CD57948A169D9B1B7
:1022E000C0F80090FFF720FD074604E0FFF71CFD53
:1022F000C01B02280FD8686A8007F7D571484FF4D1
:10230000FA510068B0FBF1F0009000BF0098411E48
:102310000091FAD20EE080E0C0F80080FFF704FDE3
:10232000074604E0FFF700FDC01B022875D8686A65
:102330008007F7D42078400760D5E8690027C000FF
:1023400008D4E86940F08050E861E869012700F0AE
:10235000805000905C480168C90513D40168834629
:1023600041F480710160FFF7DFFC824606E000BFA8
:10237000FFF7DAFCA0EB0A0064284ED8DBF8000077
:10238000C005F5D5E06801280AD008B1052813D0AA
:10239000286A20F001002862286A20F0040002E088
:1023A000286A40F001002862E06841F2883B98B159
:1023B000FFF7BAFC82460BE0286A40F0040028626E
:1023C000EEE700BFFFF7B0FCA0EB0A0159455AD871
:1023D000286A8007F6D50CE0FFF7A6FC824605E0E8
:1023E000FFF7A2FCA0EB0A0159454CD8286A8007E8
:1023F000F6D41FB1E86920F08050E861E06988B345
:102400006968C1F38101022944D00228C6F86080BE
:1024100004D0FFF789FC044638E034E0FFF784FC81
:10242000074604E0FFF780FCC01B02282BD8286871
:102430008001F7D4206AB0F5803F05D16868A168B3
:1024400020F4003008436860D4E908010843696853
:1024500021F4741108436860C6F86090FFF764FCCB
:10246000044606E025E000BFFFF75EFC001B0228E3
:1024700009D828688001F7D51BE000BFFFF754FC9E
:10248000001B022802D90320BDE8F88F28688001CC
:10249000F4D40EE00128F7D06868226A00F4803195
:1024A000914204D1616A00F47010884201D0012089
:1024B000EAE70020E8E70000001002400000424286
:1024C00080044242340000200070004010B5401EDD
:1024D000B0F1807F01D3012010BD4FF0E024606196
:1024E0000F21601701F0FCFC0020A0610720206193
:1024F000002010BD7047704710B590F83C20012AAD
:1025000022D0012280F83C20CA688C6822F44072F4
:1025100022434C6822F4806222430C6822F4006259
:1025200022430C6922F4805222434C6922F4005267
:102530002243C969002322F480420A4301684A64A5
:1025400080F83C30002010BD022010BD70B590F81E
:102550003C20012A26D0012480F83C40022280F849
:102560003D2003685A689D6822F070060A6832436D
:102570005A600D4B02689A4208D0B2F1804F05D0E4
:102580000A4B9A4202D00A4B9A4204D1496825F07C
:1025900080031943916080F83D40002180F83C1091
:1025A000084670BD022070BD002C014000040040B0
:1025B0000008004010B5040003D094F83D0010B1AD
:1025C00007E0012010BD002084F83C00204600F008
:1025D0001FF8022084F83D00211D206801F0F2F967
:1025E000012084F8460084F83E0084F83F0084F817
:1025F000400084F8410084F8420084F8430084F8E5
:10260000440084F8450084F83D00002010BD00001F
:1026100008B500680F4988421AD10F48816941F412
:10262000006181618069002200F400600090114621
:102630001820FFF7E5FB1820FFF7D4FB0022114616
:102640001A20FFF7DDFBBDE808401A20FFF7CABBE0
:1026500008BD0000002C01400010024090F83D1021
:10266000012901D001207047022180F83D10016846
:10267000CA6842F00102CA6000680B49884208D06B
:10268000B0F1804F05D00949884202D008498842FC
:1026900004D1816801F00701062903D0016841F0E7
:1026A0000101016000207047002C0140000400403F
:1026B0000008004070B5044690F83C000025012851
:1026C00017D0012684F83C60022084F83D00206881
:1026D000826822F0770222F47F42826008685028E4
:1026E00038D00DDC20284FD005DC90B3102811D154
:1026F0004AE0022070BD302846D040280AD13BE095
:1027000060282FD070280DD0B0F5805F03D0B0F5D1
:10271000005F12D0012584F83D60002084F83C0061
:10272000284670BDCB68D1E90121206801F080F90D
:102730002068816841F0770109E0CB68D1E9012187
:10274000206801F075F92068816841F4804181605A
:10275000E1E719E0CA684968206801F01DFA5021D4
:10276000206806E0CA684968206801F026FA6021FE
:10277000206801F067F9CEE7CA684968206801F06F
:102780000BFA40212068F4E7226801461046F0E782
:10279000704770B50446006801694FF00005C943F1
:1027A000890715D4C168C943890711D4E91E01619D
:1027B00001202077206880698007204602D0FFF73B
:1027C000E7FF04E000F0E7F8204600F013F9257772
:1027D00020680169C943490717D4C168C94349073B
:1027E00013D46FF004010161022020772068806912
:1027F00010F4407F204602D0FFF7CAFF04E000F04B
:10280000CAF8204600F0F6F8257720680169C94328
:10281000090716D4C168C943090712D46FF008012B
:102820000161042020772068C0698007204602D01B
:10283000FFF7AEFF04E000F0AEF8204600F0DAF853
:10284000257720680169C943C90617D4C168C943FF
:10285000C90613D46FF010010161082020772068A9
:10286000C06910F4407F204602D0FFF791FF04E0DA
:1028700000F091F8204600F0BDF825772068016946
:10288000C943C90708D1C168C943C90704D1891E12
:102890000161204600F0B0F820680169C9430906CB
:1028A00009D4C168C943090605D46FF080010161EC
:1028B0002046FFF71FFE20680169C943490609D475
:1028C000C168C943490605D46FF040010161204643
:1028D00000F0A2F820680169C94389060BD4C168D9
:1028E000C943890607D46FF0200101612046BDE885
:1028F0007040FFF700BE70BD00B585B000210091AB
:1029000001910291039100680B49884212D10B4852
:10291000816941F0040181618069694600F0040029
:1029200004904FF4807000900220019003900448BE
:10293000FFF700F905B000BD002C01400010024077
:102940000008014070B5044690F83C0000250128BD
:102950000FD0012084F83C006AB1042A0FD0082A65
:1029600011D00C2A13D00125002084F83C00284601
:1029700070BD022070BD206801F06CF8F4E720689B
:1029800001F090F8F0E7206801F0B8F8ECE7206873
:1029900001F0E0F8E8E7704710B5040003D094F8C0
:1029A0003D0010B107E0012010BD002084F83C007C
:1029B000204600F01EF8022084F83D00211D20680A
:1029C00001F000F8012084F8460084F83E0084F805
:1029D0003F0084F8400084F8410084F8420084F805
:1029E000430084F8440084F8450084F83D0000204A
:1029F00010BD704770470000054A0168914206D13A
:102A0000007F002803D103480168491C016070471A
:102A1000002C0140380000207047704770470000CC
:102A2000F8B5016804460868CA684B6910F00F0FD2
:102A30004FF0000559D003F0010602F490773743B8
:102A400065D0C10705D0D10503D5616C41F0010106
:102A50006164410705D5D90703D0616C41F00201DB
:102A60006164810705D5D90703D0616C41F0040189
:102A70006164010707D502F02001314303D0616C86
:102A800041F008016164616C00293AD0800604D5E8
:102A9000900602D5204601F0D1F820684069616CAB
:102AA000C0F38010090700D460B3204601F09FF8FE
:102AB00020684069400621D52068143050E8001F86
:102AC00021F0400140E80012002AF5D1E06BA8B1E6
:102AD0006D494163E06BFEF7CFFF002811D0E06B3A
:102AE000416B01B0BDE8F040084783060FD593065F
:102AF0000DD52046BDE8F84001F0A0B82046FFF70C
:102B00008DFFF8BD2046FFF789FF6564F8BD266B91
:102B10002023012E7CD1C6067AD5D60678D5086842
:102B20004868009048694FF00206400640D5E16BC6
:102B3000086840680004000CE8D0A28D8242E5D904
:102B4000E085886920282DD020680C3050E8001FCF
:102B500021F4807140E80012002AF5D12068143079
:102B600050E8001F21F0010140E80012002AF5D1D1
:102B70002068143050E8001F21F0400140E80012A6
:102B8000002AF5D184F84230256320680C3050E8E3
:102B9000001F21F0100140E80012002AF5D1E06B7F
:102BA000FEF746FF6663A08DE18D401A81B22AE0F0
:102BB000A08DE18D401A81B2E08D0028A6D00029B9
:102BC000A4D022680C3252E8000F20F4907042E842
:102BD0000007002FF5D12068143050E8002F22F0B4
:102BE000010240E80027002FF5D184F84230256328
:102BF00020680C3050E8002F22F0100240E800233B
:102C0000002BF5D166632046FFF707FFF8BDFFE70D
:102C100005062BD5150629D594F841002128F5D1B4
:102C2000A068B0F5805F01D12069B0B1206A411C75
:102C30002162216800784860E08C401E0004000C8E
:102C4000E084E3D12068C16821F08001C160206880
:102C5000C16841F04001C160D8E7206A0088C0F334
:102C600008004860206A801C2062E5E74006CDD558
:102C70005006CBD5CA68204622F04002CA6084F8CC
:102C8000413000F028F9C1E7DF3B000870B50400CF
:102C900004D094F84100002510B106E0012070BD79
:102CA00084F84050204600F023F8242084F84100A6
:102CB0002068C16821F40051C160204601F020F86D
:102CC0002068016921F4904101612068416921F087
:102CD0002A0141612068C16841F40051C160656406
:102CE000202084F8410084F842006563002070BD14
:102CF00070B586B0002400940194029403942E4E83
:102D000003682E49022003222D4DB34226D18B6940
:102D100043F480438B618B6903F4804304938B6994
:102D200043F004038B618969039201F0040104916B
:102D30000102CDE9001069462846FEF7FBFE281582
:102D4000CDE90004694628460294FEF7F3FE00220E
:102D500011462520FFF754F8252028E0194EB342EC
:102D600027D1CB6943F40033CB61CB6903F4003343
:102D700004938B6943F004038B618969039201F02A
:102D8000040104910421CDE9001069462846FEF7AC
:102D9000D1FE0820CDE90004694628460294FEF7DA
:102DA000C9FE002211462620FFF72AF82620FFF749
:102DB00019F806B070BD0000003801400010024054
:102DC000000801400044004090F84230202B01D020
:102DD0000220704721B11AB10023036300F0ECBF59
:102DE0000120704710B5044600680D4988420AD199
:102DF00000F078FB0B49486001F044F81C220A49B6
:102E00000A48FFF7E1FF0A492068884206D1BDE879
:102E10001040012207490848FFF7D6BF10BD000047
:102E20000038014038000020B000002020020020BF
:102E30000044004014010020680200202DE9F843FE
:102E4000044690F841001F4616460D46202802D041
:102E50000220BDE8F8837DB176B1002060642120B6
:102E600084F84100FEF760FFA6848046E684A068EF
:102E7000B0F5805F02D003E00120EAE7206910B1DD
:102E80002E4600250EE000260CE08021204600F0B2
:102E9000AEFFA0B9AEB116F8010B21684860E08C16
:102EA000401EE084E08C43464FF00002009700286B
:102EB000EBD14FF04001204600F099FF30B10320E4
:102EC000C7E735F8020BC0F30800E6E7202084F8D6
:102ED00041000020BDE77047FEE700003EB500243A
:102EE00011480094019402940E49846001600473B7
:102EF0000475012505614FF460214460C161FEF74E
:102F0000ADFB08B1FEF7CAFA07200094CDE90150E5
:102F100069460548FEF71EFB002801D0FEF7BEFA01
:102F20003EBD000000240140780100203EB5002194
:102F30001148009101910F4A029102608160017372
:102F4000017501244FF460220461C2614160FEF703
:102F500085FB08B1FEF7A2FA07200094CDE90140F5
:102F600069460548FEF7F6FA002801D0FEF796FA02
:102F70003EBD000000280140A80100202DE9F04FCF
:102F800085B000243248009401940294039481692E
:102F900041F010018161816901F0100104918169A2
:102FA00041F020018161816901F020010491816972
:102FB00041F004018161816901F00401049181699A
:102FC00041F0080181618069DFF8889000F0080015
:102FD0004FF400550490002229464846FEF79FFE14
:102FE000DFF874A04FF4C057002239465046FEF770
:102FF00096FEDFF868B04FF400780022414658464C
:10300000FEF78DFE0095022601250396CDE90154B9
:1030100069464846FEF78EFDE803CDE9000469469F
:1030200048460294FEF786FD00970396CDE90154C9
:1030300069465046FEF77EFDCDF800800396CDE947
:10304000015469465846FEF775FD05B0BDE8F08F9E
:10305000001002400010014000080140000C014037
:1030600010B596B000240F941094119412941394F8
:103070001C2108A81494FDF7B6F920216846FDF735
:10308000B2F92848264901604721C0E901144FF4EC
:103090007A71C0E9031444618461FFF78BFA08B1C7
:1030A000FEF7FCF94FF480500F900FA91D48FFF771
:1030B00001FB08B1FEF7F2F91A48FFF76DFC08B101
:1030C000FEF7ECF9139413A916481494FFF73EFA8F
:1030D00008B1FEF7E3F9089409940A940B940C9450
:1030E0000D94002208A90F480E94FFF72BFC08B19D
:1030F000FEF7D4F900944FF40050CDE90440029457
:1031000001940394694607480794FFF7F5F908B15D
:10311000FEF7C4F90348FFF7EFFB16B010BD00003F
:10312000002C0140D80100200C4810B50A4901606C
:103130004FF461414160002181600C22C160C0E90F
:1031400004128161C161FFF7A1FD002803D0BDE831
:103150001040FEF7A3B910BD003801402002002046
:103160000C4810B50A4901604FF416514160002126
:1031700081600C22C160C0E904128161C161FFF766
:1031800085FD002803D0BDE81040FEF787B910BDCB
:103190000044004068020020FEE7FEE770B500240E
:1031A00004F1B000C0B2002100F062F9002108462D
:1031B00000F05EF90021102000F05AF900250121ED
:1031C000002000F055F96D1CEDB2802DF7D3641C82
:1031D000E4B2082CE4D370BD70B50446861C18E038
:1031E00004F1B000C0B2002100F042F9002108460D
:1031F00000F03EF90021102000F03AF900250121ED
:10320000002000F035F96D1CEDB2802DF7D3641C61
:10321000E4B2B442E4D370BDF0B5614C85B0A069AE
:1032200040F00400A061A069012500F004000490B2
:10323000F020CDE900055B4F02266946039638462B
:10324000FEF778FC0122F0213846FEF768FDA06900
:1032500040F00800A061A06940F20314CDE90045E8
:1032600000F00800CDE903604F4D69462846FEF79F
:1032700061FC012221462846FEF751FD012211463C
:103280002846FEF74CFD6420FEF742FC0022012197
:103290002846FEF744FDC820FEF73AFC01221146FD
:1032A0002846FEF73CFD0021AE2000F0E1F80021A9
:1032B000084600F0DDF80021102000F0D9F80021C8
:1032C000402000F0D5F80021812000F0D1F8002145
:1032D000CF2000F0CDF80021A12000F0C9F8002196
:1032E000C82000F0C5F80021A62000F0C1F8002198
:1032F000A82000F0BDF800213F2000F0B9F800211F
:10330000D32000F0B5F80021084600F0B1F8002104
:10331000D52000F0ADF80021802000F0A9F80021B0
:10332000D92000F0A5F80021F12000F0A1F800213B
:10333000DA2000F09DF80021122000F099F8002119
:10334000DB2000F095F80021402000F091F80021EA
:10335000202000F08DF80021022000F089F80021E3
:103360008D2000F085F80021142000F081F8002164
:10337000A42000F07DF80021A62000F079F80021BB
:10338000AF2000F075F80021AF2000F071F8FFF7D2
:1033900005FF0021084600F009F805B0F0BD000067
:1033A0000010024000080140000C014010B5044626
:1033B000B031C8B2002100F05BF8102040EA1410D0
:1033C000002100F055F804F00F00BDE8104040F077
:1033D0000100002100F04CB82DE9F041203A002412
:1033E0000D468046D7B27F2803D900208D1C804629
:1033F000EDB22946FFF7DAFF0F4E00BF04EB0710CE
:103400000121305C00F034F8641CE4B2082CF5D3E0
:103410006D1CE9B24046FFF7C9FF002404EB07101A
:1034200030440121007A00F023F8641CE4B2082C37
:10343000F4D3BDE8F0810000404700082DE9F041D9
:1034400017460E46044600250CE031462046FFF79D
:10345000C3FF0834E4B2782C02D90024B61CF6B2BB
:103460006D1CEDB27A5D002AEFD1BDE8F08100005D
:1034700070B51A4E054609B1012200E00022402134
:103480003046FEF74CFC002210213046FEF747FC88
:103490000024002220213046FEF741FC280601D5F9
:1034A000012200E0002280213046FEF738FC012294
:1034B00020213046FEF733FC6806641C050EE4B29A
:1034C000082CE6D3012210213046FEF728FC3046B6
:1034D000BDE8704001224021FEF721BC00080140F8
:1034E0007047000010B50D4A0021535CF12B0BD042
:1034F000491C1C29F9DB0A4B002144181C2C01EB48
:10350000000403DA145D04E0C8B2F4E7144414F8CC
:103510001C4C5C54491C1C29EFDB10BDB000002082
:10352000C2020020704700000020084902460A54E9
:10353000401C1028FBDB0120087057208870FF23F7
:10354000102202490248FFF779BC00004C0000201D
:10355000680200200020074902460A54401C102837
:10356000FBDB51208870FF23082202490248FFF745
:1035700065BC00004C0000206802002000200749C4
:1035800002460A54401C1028FBDB50208870FF23A1
:10359000082202490248FFF751BC00004C000020FD
:1035A000680200200021074A0B465354491C102989
:1035B000FBDB3D389070FF23102202490248FFF7E1
:1035C0003DBC00004C0000206802002000230B4A94
:1035D000302806D900215354491C1029FBDB13382D
:1035E00005E000201354401C1028FBDB27209070BE
:1035F000FF23102201490248FFF720BC4C000020A5
:10360000680200200020074902460A54401C102886
:10361000FBDB4E208870FF23102202490248FFF78F
:103620000DBC00004C00002068020020002007496B
:1036300002460A54401C1028FBDB4B208870FF23F5
:10364000102202490248FFF7F9BB00004C0000209D
:103650006802002010B54C20FFF7A4FF1E20FEF7E3
:1036600057FA4520FFF79EFF1E20FEF751FA47202C
:10367000FFF798FF1E20FEF74BFA4F20FFF792FF4F
:103680001E20FEF745FA3120FFF7A0FF1E20FEF7AF
:103690003FFA3920FFF79AFF1E20FEF739FA302053
:1036A000FFF794FF1E20FEF733FA3020FFF78EFF5E
:1036B000BDE810401E20FEF72BBA0000002006498E
:1036C00002460A54401C1028FBDBFF230822024953
:1036D0000248FFF7B3BB00004C0000206802002046
:1036E0000020074902460A54401C1028FBDB4F20EB
:1036F0008870FF23082202490248FFF79FBB0000A1
:103700004C000020680200200020084902460A54AC
:10371000401C1028FBDB0120087056208870FF2316
:10372000102202490248FFF789BB00004C0000202C
:10373000680200200020074902460A54401C102855
:10374000FBDB52208870FF23082202490248FFF762
:1037500075BB00004C0000206802002003480021D7
:10376000C17201734173817370470000B002002081
:10377000014AD07311747047B002002010B50F4A8F
:10378000F12414701F245470E22494702E24D470F9
:10379000B62414716B245471A82494718A24D471B2
:1037A000107251720020115C401C1944CBB20A28DF
:1037B000F9DBD843401C907210BD0000B00200201D
:1037C0000348C17B027C1144C943491C41747047C2
:1037D000B002002070B5FDF763FE4D4C6068401CE0
:1037E0006060217811B1012902D003E0012100E0DD
:1037F00003216180618888427ED36078454E464DC2
:1038000010B1032957D080E0206AB04206DBA069DE
:10381000B04203DAA84201DBFFF7B0FE206AA842FB
:1038200006DAA069B04203DAA84201DBFFF758FFCD
:10383000A069B04206DB206AB04203DAA84201DB8D
:10384000FFF788FEA069A84206DA206AB04203DAD0
:10385000A84201DBFFF76EFF206AB04204DBA069DB
:10386000B04201DB00F0A4FC206AA84204DAA0699F
:10387000A84201DA00F0DEFC206AB04204DBA06955
:10388000B04201DA00F0AAFC206AA84204DAA0697A
:10389000A84201DB00F0B8FC1F49A0694942084476
:1038A000B0F1D07F31D2206AB0422EDAA8422CDBB0
:1038B000FFF704FF29E0206AB04206DBA069B042AE
:1038C00003DAA84201DBFFF71FFF206AA84206DAED
:1038D000A069B04203DAA84201DBFFF725FEA06928
:1038E000B04206DB206AB04203DAA84201DBFFF7F0
:1038F00089FEA069A84200E009E006DA206AB04229
:1039000003DAA84201DBFFF791FE0020606070BD82
:10391000000000209A9939409A99993EFEF70ABA18
:1039200030B593B028216846FCF75DFD14210AA844
:10393000FCF759FD0024012108040F9410941294FF
:103940000491CDE90010CDE90804119402940225F8
:1039500007956846FEF72AFC08B172B6FEE70F200D
:10396000CDE90A054FF48060CDE90C4000210AA89A
:103970000E94FEF73FFB08B172B6FEE70FA80F9555
:103980001194FEF7C1FA002801D072B6FEE713B019
:1039900030BD70470148FEF7FCBE0000D801002092
:1039A0000148FEF7F6BE0000D80100200148FEF7EE
:1039B000F0BE0000D80100200148FEF7EABE00007A
:1039C000D8010020F0B50268164B174C174D4FF088
:1039D0008047984205D0B84203D0A04201D0A84207
:1039E00003D122F070064A683243984205D0B842AB
:1039F00003D0A04201D0A84203D122F44074CA6887
:103A000022434C6922F08002224302608A68C2622B
:103A10000A688262984201D109690163012141610A
:103A2000F0BD0000002C01400004004000080040F0
:103A300010B5846842EA032224F47F440A432243F7
:103A4000826010BD826822F070020A4342F00701D2
:103A50008160704730B5036A026A22F00102026297
:103A60004268846924F073050C682C4323F0020536
:103A70008B682B430A4DA8420BD123F00805CB6875
:103A800022F440722B434D6923F0040315438A69E5
:103A90002A434260846149684163036230BD00008B
:103AA000002C014030B5026A036A23F01003036260
:103AB000436884690D6824F4E64444EA05248D686B
:103AC00022F0200242EA05120B4DA8420ED1CD6829
:103AD00022F0800242EA05124D6923F4406343EA72
:103AE00085038D6922F0400243EA850343608461C7
:103AF00049688163026230BD002C014030B5036A21
:103B0000026A22F4807202624268C46923F400737C
:103B100024F073050C682C438D6843EA05230C4D93
:103B2000A8420ED1CD6823F4006343EA05234D6912
:103B300022F4405242EA05128D6923F4806342EA7E
:103B400005124260C4614968C163036230BD000070
:103B5000002C014030B5046A026A22F480520262ED
:103B60004268C3690D6823F4E64343EA05238D6880
:103B700024F4005444EA0534064DA84204D14D69AA
:103B800022F4804242EA85124260C36149680164BE
:103B9000046230BD002C014010B5036A046A24F0B1
:103BA00001040462846924F0F00444EA021423F05E
:103BB0000A020A438461026210BD10B5036A046AF6
:103BC00024F010040462846923F0A00324F47044F8
:103BD00044EA023243EA01118261016210BD10B56C
:103BE000406A0021C185C184FEF718FF10BD01683D
:103BF0000C3151E8002F22F4907241E80023002B91
:103C0000F5D10168143151E8002F22F0010241E89A
:103C10000023002BF5D1016B012909D101680C317A
:103C200051E8002F22F0100241E80023002BF5D1CB
:103C3000202180F8421000210163704708B590F8F8
:103C40004210222901D0022008BD82684FF480531F
:103C50009A4201D1016921B1816A9A421BD04AB1CD
:103C60000AE00268816A5268C2F308020A80816A27
:103C7000891C08E0026972B10268526802F07F0292
:103C80000A70816A491C8162C18D491E0904090CB0
:103C9000C18503D01BE002685268F1E70168CA6879
:103CA00022F02002CA600168CA6822F48072CA60E9
:103CB00001684A6922F001024A61202180F842101D
:103CC00000214163026B012A03D0FFF78BF800202B
:103CD00008BD016301680C3151E8002F22F0100289
:103CE00041E80023002BF5D101680A68D20602D50D
:103CF0000A6849680091818DFEF78FFEE7E70000B2
:103D000070B5044600680169E26821F4405111432E
:103D100001612169A0680843616908432168CA6894
:103D200041F20C639A430243CA6020684169A26968
:103D300021F44071114341611E492068884202D13B
:103D4000FEF7FEF901E0FEF7EBF900EBC00101EB35
:103D50000012606864218000B2FBF0F3B3FBF1F362
:103D60006FF018067343B2FBF0F5B2FBF0F605EB0B
:103D70008305322303EB0515B5FBF1F5B6FBF1F630
:103D800005F0F00505EB0615B2FBF0F6B2FBF0F01E
:103D9000B0FBF1F06FF01802504306EB800003EB2C
:103DA0000010B0FBF1F0216800F00F00284488609B
:103DB00070BD00000038014081628285C28500210B
:103DC0004164222180F84210016921B10168CA686A
:103DD00042F48072CA6001684A6942F001024A6195
:103DE0000068C16841F02001C160002070472DE9E2
:103DF000F041984617460E460446069D27E0681C8B
:103E000025D02DB1FDF790FFA0EB0800A8421ED9E8
:103E100020680C3050E8001F21F4D07140E80012F7
:103E2000002AF5D12068143050E8001F21F001016C
:103E300040E80012002AF5D1202084F8410084F8DF
:103E40004200002084F840000320BDE8F081206893
:103E5000006836EA000004D00020B842CFD000202D
:103E6000F3E70120F9E700000148FEF7D9BD0000A3
:103E7000200200200148FEF7D3BD000068020020A8
:103E8000FEE700000B480A49C37B0B70037C4B70B4
:103E9000037D0B71837D4B80037E63F30702C37D3B
:103EA00063F30F22CA80807E0872002070470000F2
:103EB00040000020C2020020490050EAC12018BF83
:103EC00004204A0D18BF40F0010040F2FF72B2EB2F
:103ED000515F08BF40F00200012808BF052070476D
:103EE0000907090E002804DB00F1E02080F8001427
:103EF000704700F00F0000F1E02080F8141D7047BB
:103F000030380A2801D2012070470020704700B5E0
:103F100007210020FFF732FCFFF720FC23210120BE
:103F2000FFF726FC5DF804EBFFF74ABC9CB0FDF7F9
:103F300009FFFFF7F5FCFFF721F8FFF791F8FFF70E
:103F4000F3F8FFF70DF9FEF7C9FFFEF7EFFF0022C8
:103F500011461B20FDF754FF1B20FDF743FF0022F5
:103F600011461920FDF74CFF1920FDF73BFFDFF844
:103F7000B891012251034846FDF7D1FE00224FF4CB
:103F800000716A48FDF7CBFE694C00224FF40061D6
:103F90002046FDF7C4FE012211032046FDF7BFFEB7
:103FA000FFF73AF9FFF7FAF86248FEF757FB1C22D1
:103FB00061496248FEF708FF5F49012264316048A9
:103FC000FEF702FFFFF7EAF8FFF7A1FF5D4E5E4D37
:103FD0005E4C14274FF47A783068B0FBF7F107FB9A
:103FE000110000283CD1FFF7F5FB607800284FF066
:103FF00002003DD0FFF7F0F8227855A103A86368CE
:10400000FCF7F2F8002103AA0846FFF717FA2B790C
:104010002A7A51A103A8FCF7E7F803AA022100209D
:10402000FFF70CFA50A103A8FCF7DEF803AA04215D
:104030000020FFF703FA206A00F060FA82468B4600
:10404000A06900F05BFA02460B464AA103A8CDE93D
:1040500000ABFCF7C9F803AA06210020FFF7EEF930
:104060003268B2FBF8F108FB1120002840D048E08C
:10407000FFF7B2F84FF4004A51464846FDF74AFEB2
:10408000227833A103A86368FCF7AEF8002103AAE5
:104090000846FFF7D3F92B792A7A39A103A8FCF750
:1040A000A3F803AA02210020FFF7C8F938A103A84A
:1040B000FCF79AF803AA04210020FFF7BFF9514644
:1040C0004846FDF727FE0090206A00F017FA824666
:1040D0008B46A06900F012FA009ACDF800A0CDE955
:1040E00001B202460B462DA103A8FCF77DF8B2E70A
:1040F000FF2312222D491148FEF7A0FEA068401CA4
:10410000A0602879E168084306D0A0680A287FF4F7
:1041100063AF0020E0605FE7287A0028FBD1FFF75B
:1041200099FA0120F6E7000000100140000C014060
:1041300000080140D8010020B0000020200200202B
:10414000680200203800002040000020000000200D
:1041500025642C256400000069643A25642C65728E
:10416000723A2564000000006D6F64653A637472F2
:104170006C00000025312E31662C25312E31660071
:1041800069643A25642C6572723A25316400000036
:104190006D6F64653A6E6F726D616C0025312E3102
:1041A000662C25312E31662C25640000B0020020DB
:1041B0000020084902460A54401C1028FBDB50200E
:1041C00088705120C870FF23082202490248FEF778
:1041D00035BE00004C000020680200200020084985
:1041E00002460A54401C1028FBDB502088705220E5
:1041F000C870FF23082202490248FEF71FBE0000D4
:104200004C000020680200200020084902460A54A1
:10421000401C1028FBDB4F2088705120C870FF2302
:10422000082202490248FEF709BE00004C000020A7
:10423000680200200020084902460A54401C102849
:10424000FBDB4F2088705220C870FF2308220249F0
:104250000248FEF7F3BD00004C0000206802002079
:1042600010B500290AD00878002807D005487844FE
:10427000FCF798FC002801D0002010BD02487844CB
:1042800010BD0000760B00006E0B000021F0004214
:10429000A2F16052B2F5801F01F0004328BFD2F1B5
:1042A0007F6C0BD95FEA001C43EAC20242EB5070FC
:1042B00018BF704728BF20F001007047B2F5801F7B
:1042C000BCBF184670474FEA410C1CF5001F02D2D4
:1042D000084600F098B970B500F0BCF800000089FD
:1042E000FFF7F6BF4FF00040A0F5800070470000D8
:1042F00002494FF0000000F08DB900BF0000F87FC8
:10430000DFF848C170B51CEA111E1EBF1CEA131568
:104310009EEA0C0F95EA0C0F00F06F8081EA03040F
:1043200023EA4C134EEAD47E21EA4C1141F4801169
:1043300043F48013AE44A1FB024CA0FB0365AEF135
:104340007F7E361955EB0C05A1FB034C4CF10003A5
:10435000A0FB021C16EB0C06654153F10003094259
:1043600018BF46F0010613F4007F0BD14FEA03316A
:104370004FEA0530340341EA155140EA16506FF018
:1043800003020AE04FEAC3214FEAC520F40241EAE2
:10439000555140EA56506FF0020202EB2E4201EBFB
:1043A000025585EACE710AD05FEA440C18BF24F0AA
:1043B000004450F1000041F1000120EAD47040F2C5
:1043C000FE7C624500D270BDA84214BF4FF080440D
:1043D0004FF04044002E08BF0024BEF1806FA8BFFC
:1043E000A1F1C041BDE8704080F282804FF0000032
:1043F00001F1C04101F0004170479EEA0C0F0CEA48
:10440000131518BF95EA0C0F06D04FF0000081EA93
:10441000030E0EF0004170BD00F01CF88900013E53
:1044200000F007B800F009B84FEA430C5FEA5C5CA3
:1044300008D081EA030100F05BB84FEA410C5FEA63
:104440005C5CF6D14FF00000014970470000FF07A7
:104450000000F87F0EF1020E2EF0030E5EF8046BE2
:10446000364205D4012A43EB030515F5001F12D887
:10447000012841EB010C1CF5001F0CD80ED14FEAAE
:10448000D17C15F5001F0CEB4C0C0CF1020C08BF95
:104490004CEBD37C04E04FF0080C01E04FEAD37CF6
:1044A0000CEB4C0526FA05F606F00706B6F1040CEF
:1044B00006D20EEB860CBDE870404CF0010C604754
:1044C000DFE80CF0090B02024FF000414FF0000052
:1044D000A1F5002170BD19461046012851EB0104D9
:1044E00018BFD4F5001484BF002001F0004170BD56
:1044F0000808A0F500114FEA3101704743004FEA68
:10450000D30C4FEA3C0C43401FBF40070CF16051F5
:1045100013F0FE4F70471CF0006F03D100200CF029
:10452000004170470CF0004343EA507010B540EA78
:10453000CC0000F022F800BF000000924FEA00011A
:10454000FFF7D6BF4FF000414FF00000A1F500216A
:1045500070470000B0FA80F310FA03F2C3F19D0334
:104560000AD0D90501EB1220530638BF704700F17D
:10457000010008BF20F0010070470EF1020E2EF07E
:10458000030E5EF8044B244204D44FEA4102B2F118
:104590007F4F11D84FEA4003B3F17F4F0CD80ED1B3
:1045A0004FEAD07CB2F17F4F0CEB4C0C0CF1020CBB
:1045B00008BF4CEBD17C04E04FF0080C01E04FEA5F
:1045C000D17C0CEB4C0324FA03F404F00704B4F19F
:1045D000040C06D20EEB840CBDE810404CF0010C2C
:1045E0006047DFE80CF0070802024FF00040A0F53A
:1045F000800010BD0846420018BFD2F1807288BF0B
:1046000000F0004010BDFF2141EAD050C0057047C6
:10461000FCF745B80CF00F03092B08BF082000F089
:1046200059800A2B0BD0082B18BF704708BF1CF00D
:10463000400F0AD04FF000004FF0000170471CF00F
:10464000400F18BF4FF0004070471CF0100F08D00B
:1046500020F0704300F07F4242EAD3014FEA4370FA
:10466000704700F0604021F07F4242EA000201F012
:104670007F4040EA727070474FF0FF0C4CF4E06CE2
:104680001CEA11531CBF9CEA030C9445C2BFDA42DA
:1046900001EB02517047002B0DD0BCF1000F0FD081
:1046A000002A01F00041A4BF41F0E04141F07F61E8
:1046B0004FF00000704701F000414FF000007047DC
:1046C00050EA01334FF09B0C18BF4CF0806C7FF424
:1046D0000FAE70471CF4801F11D01CF4E02F03D0E4
:1046E0006FEACC31490070474FF04050EFF3008241
:1046F00022F0704242EA000282F3008870474FF0D5
:1047000000007047010202030405060708090A0BAE
:104710000C0D0E0F10100102020304050607080914
:104720000A0B0C0D0E0F101000000000000000001E
:104730000102030406070809000000000102030447
:104740000000000000000000000000000000000069
:10475000000000F8000000000000003330000000FE
:1047600000100C06100C0600000000000000000005
:1047700040C07840C0784000043F04043F04040077
:10478000007088FC08300000001820FF211E000087
:10479000F008F000E018000000211C031E211E009C
:1047A00000F00888700000001E2123241927211022
:1047B00010160E00000000000000000000000000C5
:1047C000000000E01804020000000007182040006C
:1047D00000020418E000000000402018070000005C
:1047E000404080F0804040000202010F01020200C0
:1047F000000000F0000000000101011F01010100A4
:10480000000000000000000080B070000000000008
:104810000000000000000000000101010101010191
:104820000000000000000000003030000000000028
:1048300000000000806018040060180601000000FD
:1048400000E010080810E000000F102020100F00FA
:10485000001010F8000000000020203F2020000081
:1048600000700808088870000030282422213000D9
:1048700000300888884830000018202020110E00E1
:104880000000C02010F8000000070424243F24008A
:1048900000F80888880808000019212020110E005F
:1048A00000E0108888180000000F112020110E0071
:1048B00000380808C83808000000003F0000000069
:1048C0000070880808887000001C222121221C002A
:1048D00000E010080810E0000000312222110F0053
:1048E000000000C0C00000000000003030000000E8
:1048F0000000008000000000000080600000000058
:104900000000804020100800000102040810200070
:1049100040404040404040000404040404040400BB
:104920000008102040800000002010080402010050
:10493000007048080808F000000000303601000050
:10494000C030C828E810E0000718272423140B0003
:104950000000C038E0000000203C2302022738207D
:1049600008F8888888700000203F202020110E0061
:10497000C030080808083800071820202010080058
:1049800008F808080810E000203F202020100F0041
:1049900008F88888E8081000203F2020232018000D
:1049A00008F88888E8081000203F20000300000075
:1049B000C03008080838000007182020221E020016
:1049C00008F808000008F808203F210101213F20D5
:1049D000000808F8080800000020203F2020000000
:1049E00000000808F8080800C08080807F000000F0
:1049F00008F888C028180800203F20012638200029
:104A000008F8080000000000203F2020202030008F
:104A100008F8F800F8F80800203F003F003F2000A9
:104A200008F830C00008F808203F200007183F00B1
:104A3000E01008080810E0000F10202020100F00E0
:104A400008F808080808F000203F210101010000D3
:104A5000E01008080810E0000F18242438504F0018
:104A600008F8888888887000203F2000030C3020D8
:104A700000708808080838000038202121221C0016
:104A8000180808F8080818000000203F200000005F
:104A900008F808000008F808001F202020201F0048
:104AA0000878880000C83808000007380E010000A8
:104AB000F80800F80008F800033C0700073C030072
:104AC000081868808068180820302C03032C3020D8
:104AD0000838C800C83808000000203F2000000047
:104AE00010080808C838080020382621202018009F
:104AF000000000FE020202000000007F4040400073
:104B0000000C30C000000000000000010638C000AA
:104B100000020202FE000000004040407F00000052
:104B20000000040202020400000000000000000077
:104B30000000000000000000808080808080808075
:104B4000000202040000000000000000000000005D
:104B500000008080808000000019242222223F2053
:104B600008F8008080000000003F112020110E0096
:104B70000000008080800000000E11202020110025
:104B8000000000808088F800000E112020103F20D7
:104B90000000808080800000001F2222222213005B
:104BA000008080F0888888180020203F20200000A6
:104BB0000000808080808000006B9494949360005B
:104BC00008F8008080800000203F210000203F2066
:104BD00000809898000000000020203F2020000066
:104BE000000000809898000000C08080807F000056
:104BF00008F8000080808000203F24022D30200033
:104C0000000808F8000000000020203F20200000DD
:104C10008080808080808000203F20003F20003FF7
:104C20008080008080800000203F210000203F2005
:104C30000000808080800000001F202020201F00B6
:104C4000808000808000000080FFA12020110E00E5
:104C50000000008080808000000E112020A0FF80D6
:104C6000808080008080800020203F212000010083
:104C700000008080808080000033242424241900D8
:104C8000008080E0808000000000001F20200000E5
:104C90008080000000808000001F202020103F2026
:104CA000808080000080808000010E3008060100B6
:104CB00080800080008080800F300C030C300F005B
:104CC00000808000808080000020312E0E31200086
:104CD000808080000080808080818E7018060100B6
:104CE00000808080808080000021302C22213000D4
:104CF00000000000807C020200000000003F4040F5
:104D000000000000FF00000000000000FF000000A5
:104D10000002027C800000000040403F00000000D4
:104D2000000601010202040400000000000000006F
:104D300002400000000000A000000000054000004C
:104D4000000000C8000000000C4000000000409C73
:104D500000000000194000000020BCBE0000000060
:104D600034400000BFC91B8E00000004B5400000A5
:104D7000504BCFD06607E2CF010000006C4100002D
:104D80003E8251AADFEEA73401000000D9420000A4
:104D9000DCB5A0E23A301F97FFFFFFFFB4450000EB
:104DA000FD25A0C8E9A3C14FFFFFFFFFFF3F0000A3
:104DB0000000008000000000FF3F000000000080B5
:104DC00000000000004E0008000000204C00000021
:104DD000280100084C4E00084C000020F408000098
:104DE000440100081C00000043000000F8FFFFFF22
:104DF0000C0000000E0000000F0000002E0000005C
:104E0000000014000000000000000000000000008E
:104E10000000000000000000000000000000000092
:104E20000000000000000000010000001000000071
:104E3000000000000024F40000000000000000005A
:0C4E400001010100010001000100000060
:04000005080000ED02
:00000001FF
